:02000000E72FE8
:02000800FF2FC8
:100C1C00C7302000A10064000000A10B112E0000C1
:100C2C00080008302000A0000E26A00B1A2E080089
:100C3C000A302000A2001726A20B212E08006430D7
:100C4C002000A3001726A30B282E08000A30200032
:100C5C00A4002526A40B2F2E0800320006309F007E
:100C6C000800210030308C00210060308D00210004
:100C7C008E01230030308C0023008D0123008E0167
:100C8C0008002200A0308E008B133C0055308F00E2
:100C9C00AA308F000F103D001830A3003D00193012
:100CAC00A4003C0055308F00AA308F000F140800B0
:100CBC00210070309E0021001D1408002030F0002F
:100CCC00F1004030F2002030F300F401F501023065
:100CDC00FB004030F7000030F8000330F600003025
:100CEC00FE0008004030F2002030F300F401F50162
:100CFC000230FB004030F7000030F8000030FE00FE
:100D0C0008002000A501A6010800F901FA01FC0168
:100D1C00FD01210011309D0099260800210015309D
:100D2C009D00992608000E2621009D149D2E210061
:100D3C009D189D2E21001C08080020002508093A4A
:100D4C00031920002608093A031908002000A50AF7
:100D5C0008002000A60A0800AC26782676100800A9
:100D6C00AF267614080008007618BD2EC22E770820
:100D7C00F4070318F20AC72E7708F402031CF203D7
:100D8C00C72EF61CCA2ECF2E7808F502031CF303CF
:100D9C0008007808F5070318F30A0800FE0A063065
:100DAC007E06031D0800FE01DC26080002307B06CF
:100DBC000319E12EED2EE03077060319E82E2030D2
:100DCC00F70708000330FB00AA30F7000800FF30DB
:100DDC007706031908001630F707031C0800FF30CC
:100DEC00F7000800FF30F70008008F2607270B27B5
:100DFC002000F0000800942607270B272000F100A4
:100E0C000800F900F936F936080005307902031CA0
:100E1C00152F3B3079020318172F7908080005307D
:100E2C0008003A3008001C2723270800F618080091
:100E3C000030730203192B270800F61C08003F3002
:100E4C007302031C08002F270800F6140030F3006F
:100E5C000800F6103F30F300080076180800033045
:100E6C007206031D08007008730203194D2F031C32
:100E7C00402F532F73087002FC00053C031C080024
:100E8C007614F6100330F200D4267C08892F7614E1
:100E9C000330F200D426F8010800FC00053C031CCA
:100EAC0008007614F6140330F200D4267C08892F3F
:100EBC00761C08007C307206031D08007108730252
:100ECC000319782F031C6B2F7E2F73087102FC0003
:100EDC00053C031C08007610F6107C30F200D4267A
:100EEC007C08892F76107C30F200D426F80108009B
:100EFC00FC00053C031C08007610F6147C30F20054
:100F0C00D4267C08892FFD00FD030319992FFD03BE
:100F1C000319A62FFD030319B22FFD030319C52FC7
:100F2C00CD2FF80108007708F800F836F836780865
:100F3C00F900F836F836F83678087902F800080027
:100F4C007708F800F8367808F900F836F836F836ED
:100F5C0078087902F80008007708F800F836780865
:100F6C00F836F8077808F9007708F800F836F836FC
:100F7C00F836F836F83678087902F8000800770861
:100F8C00F800F836F836F8367708F80708007708CE
:100F9C00F800F83678087808F836F8077708F80774
:100FAC000800DA27E1270800003072060319B62E74
:100FBC00F21BB62E08007F3072020318B22E080006
:100FCC0008003326372647265E26642667268726A2
:100FDC008B262C26F12F7B08FA00F42FA326FB2658
:100FEC000127BA26192733275E27D727FA0BF42FA8
:040FFC00F12F0900C8
:020000040001F9
:08000E008C3FF337FF3FFF3F79
:00000001FF
