:02000000D82FF7
:02000800FF2FC8
:10077200C7302000A10064000000A10BBC2B0000C8
:10078200080008302000A000B923A00BC52B0800E8
:100792000A302000A200C223A20BCC2B0800643036
:1007A2002000A300C223A30BD32B08000A30200091
:1007B200A400D023A40BDA2B0800320006309F00DD
:1007C2000800210030308C00210060308D002100B3
:1007D2008E01230030308C0023008D0123008E0116
:1007E20008002200E0308E008B133C0055308F0051
:1007F200AA308F000F103D001830A3003D001930C1
:10080200A4003C0055308F00AA308F000F1408005E
:10081200210070309E0021001D1408002030F000DD
:10082200F1002000AB00AC0020004030F200A70035
:1008320020002030F300A800F401F5010230FB0093
:100842004030F7000030F8000330F6000030FE00C0
:1008520008004030F2002030F300F401F5010230CC
:10086200FB004030F7000030F8000030FE000800C6
:100872002000A501A6010800F901FA01FC01FD0111
:10088200210015309D004B240800210011309D00ED
:100892004B240800B92321009D144F2C21009D18E0
:1008A2004F2C21001C08080020002508093A0319D2
:1008B20020002608093A031908002000A50A0800AA
:1008C2002000A60A08005E242A247610080061246B
:1008D2002A2476140800200026087B24862420007F
:1008E20025087B24862422000E1100000E1500002C
:1008F2000E1108000B003F3406345B344F3466346B
:100902006D347D3407347F346F34FD000830B2001B
:1009120022000E10FD1B0E148E1400008E10FD0D11
:100922002000B20B892C08007C30CE265030CE2617
:100932007030CE2608007C30CE264430CE267C3065
:10094200CE2608007C30CE263030CE260830CE2689
:100952007C30CE2608007C30CE264430CE265C3059
:10096200CE2608006430CE265430CE265C30CE2609
:1009720008004030CE267C30CE264030CE260800FD
:100982007C30CE265030CE267C30CE2608007C30FD
:10099200CE265830CE267430CE2608007C30CE26A5
:1009A2005430CE264430CE2608002430CE267C3069
:1009B200CE260430CE2608005C30CE265430CE2619
:1009C2007430CE2608007430CE2608001030CE26B1
:1009D2003830CE267C30CE2620000930B2001030CE
:1009E200FD003725080020000930B2001030FD005C
:1009F20037257C30CE263830CE261030CE26080061
:100A02000830CE260C30CE26FE30CE260C30CE2636
:100A12000830CE260800952432259C243225A324B2
:100A22003225AC243225E4240800B3243225BA242A
:100A32003225C1243225C8243225BA240800C8240C
:100A42003225CF243225B3243225CF243225BA24AD
:100A5200080095243225D624080095243225DD2469
:100A620008000030CE260030CE2608007D08CE26B3
:100A72002000B20B372D08000800080020000630C5
:100A8200A9003730AA0008270C2520000430A9004D
:100A92000430AA000827E72420000430A9001730F8
:100AA200AA000827162520000430A9005330AA0006
:100AB2000827202520000430A9006F30AA0008274B
:100AC200F42420000230A9001E30AA0008272A259B
:100AD20020000230A9005B30AA0008272E25200042
:100AE2000130A9002130AA00082701252000013089
:100AF200A9005E30AA000827012508002000A901EC
:100B020020003230AA0008270C2520000730A90057
:100B12002000AA0108270C25080008007618922D4B
:100B2200972D7708F4070318F20A9C2D7708F40230
:100B3200031CF2039C2DF61C9F2DA42D7808F502B0
:100B4200031CF30308007808F5070318F30A0800EA
:100B5200FE0A06307E06031D0800FE01B1250800CC
:100B620002307B060319B62DC22DE0307706031939
:100B7200BD2D2030F70708000330FB00AA30F70034
:100B82000800FF307706031908001630F707031C28
:100B92000800FF30F7000800FF30F700080041248A
:100BA200DC25E0252000F00008004624DC25E025B5
:100BB2002000F1000800F900F936F9360800053086
:100BC2007902031CEA2D3B3079020318EC2D7908D7
:100BD2000800053008003A300800F125FA2508001F
:100BE200F6180800F31B02260030730203190226CE
:100BF2000800F61C08003F307302031C080006269A
:100C02000800F6140030F3000800F6103F30F3003D
:100C120008007618080003307206031D08007008E9
:100C220073020319242E031C172E2A2E7308700236
:100C3200FC00053C031C08007614F6100330F20099
:100C4200A9257C08602E76140330F200A925F8014C
:100C52000800FC00053C031C08007614F61403305F
:100C6200F200A9257C08602E761C08007C307206F2
:100C7200031D08007108730203194F2E031C422E34
:100C8200552E73087102FC00053C031C0800761007
:100C9200F6107C30F200A9257C08602E76107C309C
:100CA200F200A925F8010800FC00053C031C08001D
:100CB2007610F6147C30F200A9257C08602EFD0027
:100CC200FD030319702EFD0303197D2EFD03031985
:100CD200892EFD0303199C2EA42EF8010800770823
:100CE200F800F836F8367808F900F836F836F836AB
:100CF20078087902F80008007708F800F8367808D2
:100D0200F900F836F836F83678087902F800080063
:100D12007708F800F8367808F836F8077808F90006
:100D22007708F800F836F836F836F836F8367808E4
:100D32007902F80008007708F800F836F836F83635
:100D42007708F80708007708F800F8367808780876
:100D5200F836F8077708F8070800F21B682C7208C3
:100D62000319682C7E3072020318642C08002400D8
:100D720020309500240040309400080024009100A7
:100D82002400141CC12E24001108080022000E1396
:100D92008E12BF2622008E16080022000E178E1217
:100DA200BF2622008E16080022008E13C9238E173A
:100DB200AE30C726D530C7268030C726D330C726E7
:100DC2000030C7264030C7268D30C7261430C726CC
:100DD2002030C7260230C726A130C726C030C7261A
:100DE200DA30C7261230C7268130C726CF30C72651
:100DF200D930C726F130C726DB30C7264030C72698
:100E0200A430C726A630C726AF30C7260800200068
:100E120029080739B038C72620002A080F390038B8
:100E2200C72620002A0E0F391038C72608000B00EB
:100E32000134023404340834103420344034803411
:100E420020002708AA0020002808FD00FD36FD36F4
:100E5200FD367D08A90008270030CE267208200042
:100E6200AA007308FD00FD36FD36FD367D08200020
:100E7200A9000827730807391827CE267208200010
:100E8200A70073082000A8000800FD002000A900A8
:100E9200A936A936A9367D080739FD00FF302000A2
:100EA200AD000730AE00AF01FD08031908000310C2
:100EB2002000AD0DAE0DAF0DFD0B582F0800FD004B
:100EC2002000A900A936A936A93608270030CE2667
:100ED2000030CE262000A90A08270030CE26003096
:100EE200CE262000A90A08270030CE260030CE26C2
:100EF20008004627082720002D08CE2620002D08AE
:100F0200CE262000A90A082720002E08CE2620007F
:100F12002E08CE262000A90A082720002F08CE2658
:100F220020002F08CE26080020000130AA00200051
:100F320005302B0260272000053070027A2720003E
:100F420070082000AB0020007D30AA002000053090
:100F52002C0260272000053071027A2720007108D8
:100F62002000AC00200071082000AC0008002127FE
:100F72009527080020000830B000C0270800200094
:100F820030083003C8272000B00BC02F0800200013
:100F9200A9002000AA0108278030B100D12708004B
:100FA20020000030CE262000B10BD12F0800DE2316
:100FB200E223F223B82609240F24152439243D24E0
:100FC200D526BB27D723D723D723D723D723E92F48
:100FD2007B08FA00D025D625EE2F8F25EE25AE26EA
:100FE200B827FA0BEE2FC923E92FD025D62595274E
:0E0FF200C923F62FD723BB273F25FB2F09006D
:020000040001F9
:08000E008C3FF337FF3FFF3F79
:00000001FF
