:020000008B2F44
:02000800F42FD3
:10059000C7302000A10064000000A10BCB2A00009E
:1005A000080008302000A000C822A00BD42A0800B0
:1005B0000A302000A200D122A20BDB2A08006430FE
:1005C0002000A300D122A30BE22A08000A30200059
:1005D000A400DF22A40BE92A0800320006309F00A5
:1005E0000800210030308C00210060308D00210097
:1005F0008E01230030308C0023008D0123008E01FA
:1006000008002200E0308E008B133C0055308F0034
:10061000AA308F000F103D001830A3003D001930A4
:10062000A4003C0055308F00AA308F000F14080042
:10063000210070309E0021001D1408002030F000C1
:10064000F1002000AB00AC003E2720004030F2005B
:10065000A70020002030F300A800F401F5010230CB
:10066000FB004030F7000030F8000330F6000030A7
:10067000FE0008003E274030F2002000A700203096
:10068000F3002000A800F401F5010230FB00403027
:10069000F7000030F8000030FE0008002000A5013F
:1006A000A6010800F901FA01FC01FD012100153045
:1006B0009D0060230800210011309D006023080088
:1006C000C82221009D14642B21009D18642B210059
:1006D0001C08080020002508093A0319062D2000EF
:1006E0002608093A03190B2D08002000A50A080066
:1006F0002000A60A0800752383237610A12C7823F6
:1007000083237610A12C2000260892239D2320000D
:10071000250892239D2322000E1100000E150000D3
:100720000E1108000B003F3406345B344F3466343E
:100730006D347D3407347F346F34FD000830200081
:10074000B20022000E10FD1B0E148E1400008E103D
:10075000FD0D2000B20BA12B08007C30512650303B
:1007600051267030512608007C30512644305126E5
:100770007C30512608007C3051263030512608301C
:1007800051267C30512608007C30512644305126B9
:100790005C30512608002430512654305126483010
:1007A00051260800403051267C30512640305126D9
:1007B00008007C305126503051267C3051260800EC
:1007C0007C305126583051263430512608007C3078
:1007D0005126543051264430512608007C30512691
:1007E0002030512610305126203051267C305126A1
:1007F0000800783051260430512678305126080000
:10080000703051260C305126103051260C305126B4
:10081000703051260800443051267C305126443037
:1008200051260800243051267C30512604305126B0
:1008300008005C305126543051267430512608008F
:1008400074305126080010305126383051267C3043
:10085000512620000930B2001030FD009B24080012
:1008600020000930B2001030FD009B247C3051265E
:1008700038305126103051260800083051260C30EF
:100880005126FE3051260C305126083051260800E2
:10089000AD239324B4239324BB239324C423932410
:1008A00020240800CB239824D2239824D9239824E9
:1008B000E0239824D2230800E0239824E7239824F7
:1008C000CB239824E7239824D2230800AD2398242F
:1008D000E0239824E7239824CB239824CB230800F3
:1008E000C4239824D9239824EE239824E72398241A
:1008F0000800B4239824F9239824E7239824E023BC
:1009000098240800002498240B249824BB239824BE
:10091000CB2398240800AD23982412240800AD238B
:100920009824192408000030512600305126080070
:100930000030512608007D0851262000B20B9B2C68
:1009400008006A233A233B27C0270330AA278323C2
:10095000CD2F20000530A9003730AA008B2648246F
:1009600020000330A9002B30AA008B26662420002B
:100970000330A9004230AA008B2652242000033005
:10098000A9005630AA008B26202408003E2720000C
:100990000630A9002E30AA008B26702420000630D5
:1009A000A9004330AA008B26792420000630A90034
:1009B0005330AA008B26202420000430A9003E30AA
:1009C000AA008B26822420000230A9002C30AA0025
:1009D0008B26662420000230A9004330AA008B2613
:1009E0005C2408003E27C62420000430A9003330D0
:1009F000AA008B268B2408003E27C6242000043042
:100A0000A9003330AA008B268F2408001E233A2326
:100A1000F2247B279E2F1E233A23FC247B279E2F24
:100A20007618132D182D7708F4070318F20A1D2DD8
:100A30007708F402031CF2031D2DF61C202D252D32
:100A40007808F502031CF30308007808F50703187B
:100A5000F30A0800FE0A6C2706307E06031D080014
:100A6000FE013325080002307B060319382D442D82
:100A7000E030770603193F2D2030F70708000330D8
:100A8000FB00AA30F7000800FF30770603190800C2
:100A90001630F707031C0800FF30F7000800562344
:100AA0005B255F252000F00008005B235B255F25A8
:100AB0002000F1000800F900F936F9360800053089
:100AC0007902031C692D3B30790203186B2D7908DC
:100AD0000800053008003A30080070257825080025
:100AE000F6180800730803197F2DF31B7F2D0800EB
:100AF000F61C08003F3073020318842D0800F6141A
:100B00000030F30068270800F6103F30F300682734
:100B100008007618080003307206031D08007008EC
:100B200073020319A32D031C962DA92D73087002BF
:100B3000FC00053C031C08007614F6100330F2009C
:100B40002A257C08DF2D76140330F2002A25F801CF
:100B50000800FC00053C031C08007614F614033062
:100B6000F2002A257C08DF2D761C08007C307206F6
:100B7000031D0800710873020319CE2D031CC12D3B
:100B8000D42D73087102FC00053C031C080076108C
:100B9000F6107C30F2002A257C08DF2D76107C30A0
:100BA000F2002A25F8010800FC00053C031C08009F
:100BB0007610F6147C30F2002A257C08DF2DFD002B
:100BC000FD030319EF2DFD030319FC2DFD0303198C
:100BD000082EFD0303191B2E232EF80108007708A9
:100BE000F800F836F8367808F900F836F836F836AE
:100BF00078087902F80008007708F800F8367808D5
:100C0000F900F836F836F83678087902F800080066
:100C10007708F800F8367808F836F8077808F90009
:100C20007708F800F836F836F836F836F8367808E7
:100C30007902F80008007708F800F836F836F83638
:100C40007708F80708007708F800F8367808780879
:100C5000F836F8077708F8070800761C302E362E8D
:100C6000720803190234F21B0234003472087F3C0C
:100C7000031C01340034240020309500240040304F
:100C800094000800240091002400141C442E240029
:100C90001108080022000E138E12422622008E1622
:100CA000080022000E178E12422622008E1608001F
:100CB00022008E13D8228E17AE304A26D5304A260F
:100CC00080304A26D3304A2600304A2640304A2611
:100CD0008D304A2614304A2620304A2602304A26D1
:100CE000A1304A26C0304A26DA304A2612304A2637
:100CF00081304A26CF304A26D9304A26F1304A265A
:100D0000DB304A2640304A26A4304A26A6304A26FE
:100D1000AF304A260800200029080739B0384A2693
:100D200020002A080F3900384A2620002A0E0F39E1
:100D300010384A2608000B00013402340434083409
:100D4000103420344034803420002708AA002000CA
:100D50002808FD00FD36FD36FD367D08A9008B26EE
:100D60000030512672082000AA007308FD00FD36ED
:100D7000FD36FD367D082000A9008B267308073953
:100D80009B26512672082000A70073082000A800A7
:100D90000800FD002000A900A936A936A9367D0863
:100DA0000739FD00FF302000AD000730AE00AF0175
:100DB000FD080319080003102000AD0DAE0DAF0DA6
:100DC000FD0BDB2E0800FD002000A900A936A93686
:100DD000A9368B2600305126003051262000A90A62
:100DE0008B2600305126003051262000A90A8B2680
:100DF00000305126003051260800C9268B262000DD
:100E00002D08512620002D0851262000A90A8B26E6
:100E100020002E08512620002E0851262000A90A65
:100E20008B2620002F08512620002F08512608006D
:100E300020000130AA00200005302B02E32620000C
:100E400005307002FD26200070082000AB00200055
:100E50007D30AA00200005302C02E326200005305A
:100E60007102FD26200071082000AC0020007108EE
:100E70002000AC000800A426182708002000083035
:100E8000B000432708002000300830034B27200023
:100E9000B00B432F08002000A9002000AA018B26D8
:100EA0008030B10054270800200000305126200077
:100EB000B10B542F080022000D12080022000D165D
:100EC00008002000330803195B2FB3035E270800D6
:100ED00002302000B300080002302000B3000530CB
:100EE0002000B300080020008D1A772F792F5B2790
:100EF000732F5E27732F4F2555251827D8222000E2
:100F00008D1A7B2F5E27DF225B27862F20008D1E08
:100F1000862FD8220800ED22F12201233B26182338
:100F20001E2324234E2352235B2758262700151700
:100F30002100101620000B178B179E2F4E233E27E3
:100F4000A92483237B273E2724233B270530AA2778
:100F50008323CD2FFF00AC2F4F2555251827D822EE
:100F60007F0892239D237F0892239D2322000E1148
:100F700000000E1500000E11C027FF0BAC2F08005B
:100F800064302000B200C42F4F2555251827612753
:100F9000D8222000B20BC42F08007B08FA004F258E
:100FA00055255B27D32F10256D258925B4252D26A2
:100FB000FD0000307D06031D6F2701307D060319FB
:100FC0007B2B02307D0603197F2B3B27FA0BD32F97
:100FD0006127D822CD2F4F2555251827D822EB2F52
:100FE000E6223E27A924F02F270016080319FF2F19
:100FF0009601270093015E27DF225B27010009008D
:020000040001F9
:08000E008C3FF337FF3FFF3F79
:00000001FF
