:02000000E12FEE
:02000800FF2FC8
:1007EE00C7302000A10064000000A10BFA2B00000E
:1007FE00080008302000A000F723A00B032C0800EF
:10080E000A302000A2000024A20B0A2C080064303B
:10081E002000A3000024A30B112C08000A30200096
:10082E00A4000E24A40B182C0800320006309F00E2
:10083E000800210030308C00210060308D00210036
:10084E008E01230030308C0023008D0123008E0199
:10085E0008002200E0308E008B133C0055308F00D4
:10086E00AA308F000F103D001830A3003D00193044
:10087E00A4003C0055308F00AA308F000F140800E2
:10088E00210070309E0021001D1408002030F00061
:10089E00F100AB00AC004030F200A7002030F300B6
:1008AE00A800F401F5010230FB004030F7000030E3
:1008BE00F8000330F6000030FE0008004030F20071
:1008CE002030F300F401F5010230FB004030F70058
:1008DE000030F8000030FE0008002000A501A6013F
:1008EE000800F901FA01FC01FD01210011309D0003
:1008FE0086240800210015309D0086240800F72369
:10090E0021009D148A2C21009D188A2C21001C0880
:10091E00080020002508093A031920002608093A84
:10092E00031908002000A50A08002000A60A0800E6
:10093E0099246524761008009C24761408007C30D7
:10094E00E0265030E0267030E02608007C30E026AD
:10095E004430E0267C30E02608007C30E026303043
:10096E00E0260830E0267C30E02608007C30E026C9
:10097E004430E0265C30E02608006430E026543037
:10098E00E0265C30E02608004030E0267C30E02691
:10099E004030E02608007C30E0265030E0267C30E7
:1009AE00E02608007C30E0265830E0267430E02641
:1009BE0008007C30E0265430E0264430E026080063
:1009CE002430E0267C30E0260430E02608005C303F
:1009DE00E0265430E0267430E02608007430E0261D
:1009EE0008001030E0263830E0267C30E02620006B
:1009FE000930B2001030FD004625080020000930F5
:100A0E00B2001030FD0046257C30E0263830E0265E
:100A1E001030E02608000830E0260C30E026FE30CC
:100A2E00E0260C30E0260230E0260800A624412500
:100A3E00AD244125B4244125BD244125F5240800CB
:100A4E00C4244125CB244125D2244125D924412536
:100A5E00CB240800D9244125E0244125C424412576
:100A6E00E0244125CB240800A624E7240800A62470
:100A7E00EE2408000030E0260030E02608007D0855
:100A8E00E0262000B20B462D0800080008002000CA
:100A9E000130A9003730AA001A271D252000033087
:100AAE00A9000430AA001A27F82420000330A90058
:100ABE001730AA001A27272520000330A90053302B
:100ACE00AA001A27312520000330A9006F30AA0092
:100ADE001A27052520000530A9001E30AA001A2766
:100AEE003B2520000530A9005B30AA001A273E25C1
:100AFE0020000630A9002130AA001A271225200056
:100B0E000630A9005E30AA001A2712250800200020
:100B1E00A90120003230AA001A271D252000073017
:100B2E00A9002000AA011A271D2508000800761822
:100B3E00A12DA62D7708F4070318F20AAB2D77081E
:100B4E00F402031CF203AB2DF61CAE2DB32D780868
:100B5E00F502031CF30308007808F5070318F30ADF
:100B6E000800FE0A06307E06031D0800FE01C025A1
:100B7E00080002307B060319C52DD12DE030770613
:100B8E000319CC2D2030F70708000330FB00AA30E4
:100B9E00F7000800FF307706031908001630F70734
:100BAE00031C0800FF30F7000800FF30F7000800B4
:100BBE007C24EB25EF252000F00008008124EB2596
:100BCE00EF252000F1000800F900F936F93608008B
:100BDE0005307902031CF92D3B3079020318FB2DE9
:100BEE0079080800053008003A300800002607266C
:100BFE000800F61808000030730203190F260800CB
:100C0E00F61C08003F307302031C08001326080070
:100C1E00F6140030F3000800F6103F30F300080021
:100C2E007618080003307206031D08007008730260
:100C3E000319312E031C242E372E73087002FC006C
:100C4E00053C031C08007614F6100330F200B8259C
:100C5E007C086D2E76140330F200B825F8010800DA
:100C6E00FC00053C031C08007614F6140330F20059
:100C7E00B8257C086D2E761C08007C307206031D8C
:100C8E0008007108730203195C2E031C4F2E622E8E
:100C9E0073087102FC00053C031C08007610F61068
:100CAE007C30F200B8257C086D2E76107C30F20078
:100CBE00B825F8010800FC00053C031C080076105E
:100CCE00F6147C30F200B8257C086D2EFD00FD0375
:100CDE0003197D2EFD0303198A2EFD030319962E8B
:100CEE00FD030319A92EB12EF80108007708F800AC
:100CFE00F836F8367808F900F836F836F836780807
:100D0E007902F80008007708F800F8367808F9003C
:100D1E00F836F836F83678087902F80008007708C1
:100D2E00F800F8367808F836F8077808F9007708EA
:100D3E00F800F836F836F836F836F83678087902CC
:100D4E00F80008007708F800F836F836F836770815
:100D5E00F80708007708F800F83678087808F836AB
:100D6E00F8077708F8070800BE26C52608000030E9
:100D7E0072060319A324F21BA32C08007F30720203
:100D8E0003189F24080024002030950024004030D2
:100D9E0094000800240091002400141CD32E24007B
:100DAE001108080022000E138E12D12622008E1674
:100DBE00080022000E178E12D12622008E16080071
:100DCE0022008E1307248E17AE30D926D530D926A1
:100DDE008030D926D330D9260030D9264030D926B6
:100DEE008D30D9261430D9262030D9260230D92676
:100DFE00A130D926C030D926DA30D9261230D926DC
:100E0E008130D926CF30D926D930D926F130D926FE
:100E1E00DB30D9264030D926A430D926A630D926A3
:100E2E00AF30D9260800200029080739073CB03812
:100E3E00D92620002A080F390038D92620002A0E7C
:100E4E000F391038D92608000B0080344034203476
:100E5E00103408340434023401342708AA00280858
:100E6E00FD00FD36FD36FD367D08A9001A2700303F
:100E7E00E0267208AA007308FD00FD36FD36FD3629
:100E8E007D08A9001A27730807392B27E026720858
:100E9E00A7007308A8000800FD002000A900A936CD
:100EAE00A936A9367D080739FD00FF302000AD00B8
:100EBE000730AE00AF01FD08031908000310200033
:100ECE00AD0DAE0DAF0DFD0B652F0800FD00200022
:100EDE00A900A936A936A9361A270030E026003017
:100EEE00E0262000A90A1A270030E0260030E0266E
:100EFE002000A90A1A270030E0260030E02608005C
:100F0E0053271A2720002D08E02620002D08E02662
:100F1E002000A90A1A2720002E08E02620002E08FD
:100F2E00E0262000A90A1A2720002F08E02620001C
:100F3E002F08E026080020000130AA00200005300E
:100F4E002B026D27200005307002872720007108C4
:100F5E002000AC0020007D30AA00200005302C02BD
:100F6E006D272000053071028727200071082000B0
:100F7E00AC0008003427A227080020000830B0007B
:100F8E00C9270800200030083003D1272000B00BFD
:100F9E00C92F08002000A9002000AA011A278030BE
:100FAE00B100DA27080020000030E0262000B10B47
:100FBE00DA2F08001C2420243024CA2647244D246E
:100FCE00522474247824E726C427FD2F7B08FA00C8
:100FDE00DF25E525F22F90249E25FD251726422696
:100FEE00BB26C127FA0BF22F0724ED2F4E25FE2F1D
:020FFE000900E8
:020000040001F9
:08000E008C3FF337FF3FFF3F79
:00000001FF
