:02000000E42FEB
:02000800FF2FC8
:10083000C7302000A10064000000A10B1B2C0000A9
:10084000080008302000A0001824A00B242C080069
:100850000A302000A2002124A20B2B2C08006430B7
:100860002000A3002124A30B322C08000A30200012
:10087000A4002F24A40B392C0800320006309F005E
:100880000800210030308C00210060308D002100F4
:100890008E01230030308C0023008D0123008E0157
:1008A00008002200E0308E008B133C0055308F0092
:1008B000AA308F000F103D001830A3003D00193002
:1008C000A4003C0055308F00AA308F000F140800A0
:1008D000210070309E0021001D1408002030F0001F
:1008E000F1004030F2002030F300F401F501023055
:1008F000FB004030F7000030F8000330F600003015
:10090000FE0008004030F2002030F300F401F50151
:100910000230FB004030F7000030F8000030FE00ED
:1009200008002000A501A6010800F901FA01FC0158
:10093000FD01210011309D00A32408002100153085
:100940009D00A3240800182421009D14A72C210039
:100950009D18A72C21001C08080020002508093A32
:10096000031920002608093A031908002000A50AE7
:1009700008002000A60A0800B62482247610080089
:10098000B924761408007C30E9265030E92670300E
:10099000E92608007C30E9264430E9267C30E92647
:1009A00008007C30E9263030E9260830E9267C3022
:1009B000E92608007C30E9264430E9265C30E92647
:1009C00008006430E9265430E9265C30E926080046
:1009D0004030E9267C30E9264030E92608007C30AA
:1009E000E9265030E9267C30E92608007C30E926EB
:1009F0005830E9267430E92608007C30E926543066
:100A0000E9264430E92608002430E9267C30E9262E
:100A10000430E92608005C30E9265430E9267430B9
:100A2000E92608007430E92608001030E92638303D
:100A3000E9267C30E92620000930B200103061251B
:100A4000080020000930B200103061257C30E92612
:100A50003830E9261030E92608000830E9260C3045
:100A6000E926FE30E9260C30E9260230E9260800A6
:100A7000C3245C25CA245C25D1245C25DA245C25AA
:100A800012250800E1245C25E8245C25EF245C2580
:100A9000F6245C25E8240800F6245C25FD245C256A
:100AA000E1245C25FD245C25E8240800C3240425FA
:100AB0000800C3240B2508000030E9260030E92691
:100AC0000800E926B20B612D08000800080020008C
:100AD0000130A9003730AA00232738252000033031
:100AE000A9000430AA002327152520000330A900FF
:100AF0001730AA002327422520000330A9005330D5
:100B0000AA0023274C2520000330A9006F30AA003B
:100B10002327212520000530A9001E30AA00232705
:100B2000562520000530A9005B30AA00232759254F
:100B300020000630A9002130A9002D252000063014
:100B4000A9005E30A9002D250800080008007618CD
:100B5000AA2DAF2D7708F4070318F20AB42D7708F1
:100B6000F402031CF203B42DF61CB72DBC2D78083B
:100B7000F502031CF30308007808F5070318F30ACD
:100B80000800FE0A06307E06031D0800FE01C92586
:100B9000080002307B060319CE2DDA2DE0307706EF
:100BA0000319D52D2030F70708000330FB00AA30C9
:100BB000F7000800FF307706031908001630F70722
:100BC000031C0800FF30F7000800FF30F7000800A2
:100BD0009924F425F8252000F00008009E24F4252F
:100BE000F8252000F1000800F900F936F936080070
:100BF00005307902031C022E3B3079020318042EC3
:100C000079080800053008003A3008000926102647
:100C10000800F618080000307302031918260800AF
:100C2000F61C08003F307302031C08001C26080055
:100C3000F6140030F3000800F6103F30F30008000F
:100C40007618080003307206031D0800700873024E
:100C500003193A2E031C2D2E402E73087002FC003F
:100C6000053C031C08007614F6100330F200C12581
:100C70007C08762E76140330F200C125F8010800B6
:100C8000FC00053C031C08007614F6140330F20047
:100C9000C1257C08762E761C08007C307206031D68
:100CA0000800710873020319652E031C582E6B2E61
:100CB00073087102FC00053C031C08007610F61056
:100CC0007C30F200C1257C08762E76107C30F20054
:100CD000C125F8010800FC00053C031C0800761043
:100CE000F6147C30F200C1257C08762EFD00FD0351
:100CF0000319862EFD030319932EFD0303199F2E5E
:100D0000FD030319B22EBA2EF80108007708F80087
:100D1000F836F8367808F900F836F836F8367808F4
:100D20007902F80008007708F800F8367808F9002A
:100D3000F836F836F83678087902F80008007708AF
:100D4000F800F8367808F836F8077808F9007708D8
:100D5000F800F836F836F836F836F83678087902BA
:100D6000F80008007708F800F836F836F836770803
:100D7000F80708007708F800F83678087808F83699
:100D8000F8077708F8070800C726CE2608000030C5
:100D900072060319C024F21BC02C08007F307202B7
:100DA0000318BC24080024002030950024004030A3
:100DB00094000800240091002400141CDC2E240060
:100DC0001108080022000E138E12DA2622008E1659
:100DD000080022000E178E12DA2622008E16080056
:100DE00022008E1328248E17AE30E226D530E2265C
:100DF0008030E226D330E2260030E2264030E22680
:100E00008D30E2261430E2262030E2260230E2263F
:100E1000A130E226C830E226DA30E2261230E2269D
:100E20008130E226CF30E226D930E226F130E226C8
:100E3000DB30E2264030E226A430E226A630E2266D
:100E4000AF30E2260800200029080739B038E22632
:100E500020002A080F390038E2262A0E0F390138FF
:100E6000E22608000B000134023404340834103444
:100E70002034403480342708AA002808FD00FD36BD
:100E8000FD36FD367D08A90023270030E9267208CB
:100E9000AA007308FD00FD36FD36FD367D08A90069
:100EA0002327730807393227E9267208A700730839
:100EB000A8000800FD002000A900A936A936A9361F
:100EC0007D080739FD00FF302000AD000730AE007F
:100ED000AF01FD080319080003102000AD0DAE0D91
:100EE000AF0DFD0B6C2F0800FD002000A900A936F6
:100EF000A936A93623270030E9260030E92620004C
:100F0000A90A23270030E9260030E9262000A90A93
:100F100023270030E9260030E92608005A27232736
:100F200020002D08E92620002D08E9262000A90A26
:100F3000232720002E08E92620002E08E92620007D
:100F4000A90A232720002F08E92620002F08E926D8
:100F5000080020000130AA00200005302B02742771
:100F60002000053070028E27200070082000AB00A2
:100F700020007D30AA00200005302B0274272000BD
:100F8000053070028E27200071082000AC00080098
:100F90003B27A927080020000830B000D027080010
:100FA0002000D527B00BD02F08002000A90020007A
:100FB0000030AA008030B100DE2708002000003099
:100FC000E926B10BDE2F08003D2441245124D3260D
:100FD00068246E24712491249524F0263624F02F61
:100FE0007B08FA00E825EE25F52FAD24A725062677
:100FF00020264B26C426C827FA0BF52FF02F090010
:020000040001F9
:08000E008C3FF337FF3FFF3F79
:00000001FF
