:02000000D42FFB
:02000800FF2FC8
:10077E00C7302000A10064000000A10BC22B0000B6
:10078E00080008302000A000BF23A00BCB2B0800D0
:10079E000A302000A200C823A20BD22B080064301E
:1007AE002000A300C823A30BD92B08000A30200079
:1007BE00A400D623A40BE02B0800320006309F00C5
:1007CE000800210030308C00210060308D002100A7
:1007DE008E01230030308C0023008D0123008E010A
:1007EE0008002200E0308E008B133C0055308F0045
:1007FE00AA308F000F103D001830A3003D001930B5
:10080E00A4003C0055308F00AA308F000F14080052
:10081E00210070309E0021001D1408002030F000D1
:10082E00F100AB00AC004030F200A7002030F30026
:10083E00A800F401F5010230FB004030F700003053
:10084E00F8000330F6000030FE0008004030F200E1
:10085E002030F300F401F5010230FB004030F700C8
:10086E000030F8000030FE0008002000A501A601AF
:10087E000800F901FA01FC01FD01210011309D0073
:10088E004E240800210015309D004E240800BF2381
:10089E0021009D14522C21009D18522C21001C0861
:1008AE00080020002508093A031920002608093AF5
:1008BE00031908002000A50A08002000A60A080057
:1008CE0061242D247610080064247614080020007C
:1008DE0026087D248824200025087D2488242200D3
:1008EE000E1100000E1500000E1108000B003F3413
:1008FE0006345B344F3466346D347D3407347F34C4
:10090E006F34FD000830B20022000E10FD1B0E14D5
:10091E008E1400008E10FD0D2000B20B8B2C0800E3
:10092E007C30D3265030D3267030D32608007C304E
:10093E00D3264430D3267C30D32608007C30D326F1
:10094E003030D3260830D3267C30D32608007C30B6
:10095E00D3264430D3265C30D32608006430D32609
:10096E005430D3265C30D32608004030D3267C305A
:10097E00D3264030D32608007C30D3265030D326E1
:10098E007C30D32608007C30D3265830D3267430E2
:10099E00D32608007C30D3265430D3264430D326B9
:1009AE0008002430D3267C30D3260430D32608000A
:1009BE005C30D3265430D3267430D32608007430DE
:1009CE00D32608001030D3263830D3267C30D326D9
:1009DE0020000930B2001030FD003925080020003B
:1009EE000930B2001030FD0039257C30D326383066
:1009FE00D3261030D32608000830D3260C30D32649
:100A0E00FE30D3260C30D3260830D3260800972488
:100A1E0034259E243425A5243425AE243425E624FD
:100A2E000800B5243425BC243425C3243425CA2417
:100A3E003425BC240800CA243425D1243425B524F9
:100A4E003425D1243425BC24080097243425D824F9
:100A5E00080097243425DF2408000030D326003008
:100A6E00D32608007D08D3262000B20B392D0800AE
:100A7E000800080020000130A9003730AA000D2719
:100A8E000E2520000330A9000430AA000D27E9240A
:100A9E0020000330A9001730AA000D2718252000CA
:100AAE000330A9005330AA000D2722252000033061
:100ABE00A9006F30AA000D27F62420000530A900EA
:100ACE001E30AA000D272C2520000530A9005B3012
:100ADE00AA000D27302520000630A9002130AA00DB
:100AEE000D27032520000630A9005E30AA000D2731
:100AFE00032508002000A90120003230AA000D278E
:100B0E000E2520000730A9002000AA010D270E2572
:100B1E00080008007618942D992D7708F40703180D
:100B2E00F20A9E2D7708F402031CF2039E2DF61C8A
:100B3E00A12DA62D7808F502031CF30308007808F2
:100B4E00F5070318F30A0800FE0A06307E06031D99
:100B5E000800FE01B325080002307B060319B82DEC
:100B6E00C42DE03077060319BF2D2030F70708009B
:100B7E000330FB00AA30F7000800FF307706031998
:100B8E0008001630F707031C0800FF30F7000800B6
:100B9E00FF30F70008004424DE25E2252000F00097
:100BAE0008004924DE25E2252000F1000800F900A6
:100BBE00F936F936080005307902031CEC2D3B306E
:100BCE0079020318EE2D79080800053008003A3036
:100BDE000800F325FA250800F61808000030730205
:100BEE00031902260800F61C08003F307302031C8E
:100BFE00080006260800F6140030F3000800F61070
:100C0E003F30F30008007618080003307206031D0B
:100C1E000800700873020319242E031C172E2A2EA7
:100C2E0073087002FC00053C031C08007614F610D5
:100C3E000330F200AB257C08602E76140330F200F0
:100C4E00AB25F8010800FC00053C031C08007614D7
:100C5E00F6140330F200AB257C08602E761C0800DB
:100C6E007C307206031D08007108730203194F2EA3
:100C7E00031C422E552E73087102FC00053C031C0A
:100C8E0008007610F6107C30F200AB257C08602E42
:100C9E0076107C30F200AB25F8010800FC00053C14
:100CAE00031C08007610F6147C30F200AB257C088D
:100CBE00602EFD00FD030319702EFD0303197D2E1A
:100CCE00FD030319892EFD0303199C2EA42EF80192
:100CDE0008007708F800F836F8367808F900F83684
:100CEE00F836F83678087902F80008007708F80028
:100CFE00F8367808F900F836F836F83678087902BA
:100D0E00F80008007708F800F8367808F836F80783
:100D1E007808F9007708F800F836F836F836F8361D
:100D2E00F83678087902F80008007708F800F836E7
:100D3E00F836F8367708F80708007708F800F8361E
:100D4E0078087808F836F8077708F8070800B1260B
:100D5E00B82608000030720603196B24F21B6B2CA8
:100D6E0008007F3072020318672408002400203028
:100D7E0095002400403094000800240091002400C7
:100D8E00141CC62E24001108080022000E138E1209
:100D9E00C42622008E16080022000E178E12C426BC
:100DAE0022008E16080022008E13CF238E17AE302F
:100DBE00CC26D530CC268030CC26D330CC26003075
:100DCE00CC264030CC268D30CC261430CC2620308C
:100DDE00CC260230CC26A130CC26C030CC26DA3040
:100DEE00CC261230CC268130CC26CF30CC26D93032
:100DFE00CC26F130CC26DB30CC264030CC26A430AD
:100E0E00CC26A630CC26AF30CC26080020002908F0
:100E1E000739073CB038CC2620002A080F39003895
:100E2E00CC2620002A0E0F391038CC2608000B00D5
:100E3E008034403420341034083404340234013405
:100E4E002708AA002808FD00FD36FD36FD367D0870
:100E5E00A9000D270030D3267208AA007308FD00E2
:100E6E00FD36FD36FD367D08A9000D2773080739BE
:100E7E001E27D3267208A7007308A8000800FD00DD
:100E8E002000A900A936A936A9367D080739FD002C
:100E9E00FF302000AD000730AE00AF01FD08031992
:100EAE00080003102000AD0DAE0DAF0DFD0B582F39
:100EBE000800FD002000A900A936A936A9360D2785
:100ECE000030D3260030D3262000A90A0D2700308B
:100EDE00D3260030D3262000A90A0D270030D326B2
:100EEE000030D326080046270D2720002D08D326D4
:100EFE0020002D08D3262000A90A0D2720002E0839
:100F0E00D32620002E08D3262000A90A0D27200064
:100F1E002F08D32620002F08D326080020000130EA
:100F2E00AA00200005302B02602720000530700239
:100F3E007A27200071082000AC0020007D30AA0026
:100F4E00200005302C0260272000053071027A2720
:100F5E00200071082000AC00080027279527080004
:100F6E0020000830B000BC270800200030083003F5
:100F7E00C4272000B00BBC2F08002000A9002000C1
:100F8E00AA010D278030B100CD27080020000030C7
:100F9E00D3262000B10BCD2F0800E423E823F8233D
:100FAE00BD260F2415241A243C244024DA26B72704
:100FBE00DD23DD2301302000A50005302000A60032
:100FCE006E24F92F7B08FA00D225D825EE2F58244F
:100FDE009125F0250A263526AE26B427FA0BEE2FDC
:100FEE00CF23E92FDD23DD232000A50A6E24F92F60
:020FFE000900E8
:020000040001F9
:08000E008C3FF337FF3FFF3F79
:00000001FF
