:02000000EB2FE4
:02000800FF2FC8
:100CF000C7302000A10064000000A10B7B2E000083
:100D0000080008302000A0007826A00B842E0800E0
:100D10000A302000A2008126A20B8B2E080064302E
:100D20002000A3008126A30B922E08000A30200089
:100D3000A4008F26A40B992E0800320006309F00D5
:100D40000800210030308C00210060308D0021002F
:100D50008E01230030308C0023008D0123008E0192
:100D600008002200A0308E008B133C0055308F000D
:100D7000AA308F000F103D001830A3003D0019303D
:100D8000A4003C0055308F00AA308F000F140800DB
:100D9000210070309E0021001D1408002030F0005A
:100DA000F1004030F2002030F300F401F501C030D2
:100DB000F7000030F8000330F60008002100113081
:100DC0009D00E8260800210015309D00E826080057
:100DD000782621009D14EC2E21009D18EC2E210078
:100DE0001C08080020007908093A031920007A0835
:100DF000093A031908007618FE2E032F7708F40726
:100E00000318F20A082F7708F402031CF203082FD4
:100E1000F61C0B2F102F7808F502031CF3030800B3
:100E20007808F5070318F30A0800DE26212725278E
:100E30002000F0000800E326212725272000F100EC
:100E40000800FB00FB36FB36080005307B02031C64
:100E50002F2F3B307B020318312F7B080800053011
:100E600008003A30080036273D270800F618080029
:100E700000307302031945270800F61C08003F30B4
:100E80007302031C080049270800F6140030F30021
:100E90000800F6103F30F300080076180800033011
:100EA0007206031D0800700873020319662F031CE5
:100EB0005A2F6B2F73087002FD00053C031C0800BD
:100EC0007614F6100330F2007D089D2F761403305F
:100ED000F200F8010800FD00053C031C0800761430
:100EE000F6140330F2007D089D2F761C08007C303C
:100EF0007206031D08007108730203198E2F031C6C
:100F0000822F932F73087102FD00053C031C08001B
:100F10007610F6107C30F2007D089D2F76107C3024
:100F2000F200F8010800FD00053C031C08007610E3
:100F3000F6147C30F2007D089D2FFE00FE0303199D
:100F4000AD2FFE030319BA2FFE030319C62FFE03AC
:100F50000319D92FE12FF80108007708F800F836B7
:100F6000F8367808FB00F836F836F83678087B0251
:100F7000F80008007708F800F8367808FB00F83623
:100F8000F836F83678087B02F80008007708F80091
:100F9000F8367808F836F8077808FB007708F80084
:100FA000F836F836F836F836F83678087B02F80066
:100FB00008007708F800F836F836F8367708F807AA
:100FC00008007708F800F83678087808F836F80747
:100FD0007708F80708009D26A126B126C826CE2648
:100FE000D1260230FC000230FC0015271B27F82F09
:100FF000FB2633274D277527FC0BF82FF32F09000D
:020000040001F9
:08000E008C3FF337FF3FFF3F79
:00000001FF
