:02000000D62FF9
:02000800FF2FC8
:10075800C7302000A10064000000A10BAF2B0000EF
:10076800080008302000A000AC23A00BB82B08001C
:100778000A302000A200B523A20BBF2B080064306A
:100788002000A300B523A30BC62B08000A302000C5
:10079800A400C323A40BCD2B0800320006309F0011
:1007A8000800210030308C00210060308D002100CD
:1007B8008E01230030308C0023008D0123008E0130
:1007C80008002200E0308E008B133C0055308F006B
:1007D800AA308F000F103D001830A3003D001930DB
:1007E800A4003C0055308F00AA308F000F14080079
:1007F800210070309E0021001D1408002030F000F8
:10080800F1002000AB00AC0020004030F200A7004F
:1008180020002030F300A800F401F5010230FB00AD
:100828004030F7000030F8000330F6000030FE00DA
:100838000800B9274030F2002000A7002030F3005C
:100848002000A800F401F5010230FB004030F70059
:100858000030F8000030FE0008002000A501A601C5
:100868000800F901FA01FC01FD01210015309D0085
:1008780043240800210011309D0043240800AC23C4
:1008880021009D14472C21009D18472C21001C088D
:10089800080020002508093A031920002608093A0B
:1008A800031908002000A50A08002000A60A08006D
:1008B80056241D247610080059241D247614080097
:1008C8002000260873247E242000250873247E2413
:1008D80022000E1100000E1500000E1108000B007A
:1008E8003F3406345B344F3466346D347D3407341A
:1008F8007F346F34FD000830B20022000E10FD1B5B
:100908000E148E1400008E10FD0D2000B20B812CE9
:1009180008007C30CC265030CC267030CC2608001D
:100928007C30CC264430CC267C30CC2608007C3069
:10093800CC263030CC260830CC267C30CC2608009B
:100948007C30CC264430CC265C30CC260800643081
:10095800CC265430CC265C30CC2608004030CC263F
:100968007C30CC264030CC2608007C30CC26503059
:10097800CC267C30CC2608007C30CC265830CC26BF
:100988007430CC2608007C30CC265430CC26443039
:10099800CC2608002430CC267C30CC260430CC264B
:1009A80008005C30CC265430CC267430CC260800A5
:1009B8007430CC2608001030CC263830CC267C3059
:1009C800CC2620000930B2001030FD002F25080089
:1009D80020000930B2001030FD002F257C30CC26D5
:1009E8003830CC261030CC2608000830CC260C3005
:1009F800CC26FE30CC260C30CC260830CC2608007D
:100A08008D242A2594242A259B242A25A4242A25B2
:100A1800DC240800AB242A25B2242A25B9242A2557
:100A2800C0242A25B2240800C0242A25C7242A2540
:100A3800AB242A25C7242A25B22408008D242A2578
:100A4800CE2408008D242A25D52408000030CC2681
:100A58000030CC2608007D08CC262000B20B2F2DB4
:100A680008000800080020000630A9003730AA0056
:100A78000627042520000430A9000430AA00062710
:100A8800DF2420000430A9001730AA0006270E250D
:100A980020000430A9005330AA000627182520009A
:100AA8000430A9006F30AA000627EC242000023089
:100AB800A9001E30AA000627222520000230A9001E
:100AC8005B30AA000627262520000130A900213026
:100AD800AA000627F92420000130A9005E30AA00E8
:100AE8000627F92408002000A90120003230AA00B6
:100AF8000627042520000730A9002000AA010627A0
:100B080004250800080076188A2D8F2D7708F40729
:100B18000318F20A942D7708F402031CF203942DAB
:100B2800F61C972D9C2D7808F502031CF30308008A
:100B38007808F5070318F30A0800FE0A06307E064F
:100B4800031D0800FE01A925080002307B060319D1
:100B5800AE2DBA2DE03077060319B52D2030F707F2
:100B680008000330FB00AA30F7000800FF307706C2
:100B7800031908001630F707031C0800FF30F700B8
:100B88000800FF30F70008003924D425D8252000B4
:100B9800F00008003E24D425D8252000F1000800E4
:100BA800F900F936F936080005307902031CE22D00
:100BB8003B3079020318E42D790808000530080055
:100BC8003A300800E925F1250800F61808007308EE
:100BD8000319F82DF31BF82D0800F61C08003F3008
:100BE80073020318FC2D0800F6140030F300080007
:100BF800F6103F30F300080076180800033072063C
:100C0800031D08007008730203191A2E031C0D2E09
:100C1800202E73087002FC00053C031C08007614A3
:100C2800F6100330F200A1257C08562E7614033006
:100C3800F200A125F8010800FC00053C031C08008F
:100C48007614F6140330F200A1257C08562E761C83
:100C580008007C307206031D08007108730203192E
:100C6800452E031C382E4B2E73087102FC00053CE0
:100C7800031C08007610F6107C30F200A1257C08D1
:100C8800562E76107C30F200A125F8010800FC00F1
:100C9800053C031C08007610F6147C30F200A125F0
:100CA8007C08562EFD00FD030319662EFD0303196B
:100CB800732EFD0303197F2EFD030319922E9A2E1E
:100CC800F80108007708F800F836F8367808F900CF
:100CD800F836F836F83678087902F8000800770808
:100CE800F800F8367808F900F836F836F836780853
:100CF8007902F80008007708F800F8367808F8361E
:100D0800F8077808F9007708F800F836F836F83662
:100D1800F836F83678087902F80008007708F800FD
:100D2800F836F836F8367708F80708007708F80034
:100D3800F83678087808F836F8077708F8070800CA
:100D4800A726AF2608007618080072080319602C39
:100D5800F21B602C0800761C080072087F3C031CFC
:100D68005C2C0800240020309500240040309400BA
:100D78000800240091002400141CBF2E2400110830
:100D8800080022000E138E12BD2622008E160800BF
:100D980022000E178E12BD2622008E160800220091
:100DA8008E13BC238E17AE30C526D530C5268030AD
:100DB800C526D330C5260030C5264030C5268D301F
:100DC800C5261430C5262030C5260230C526A130D8
:100DD800C526C030C526DA30C5261230C526813072
:100DE800C526CF30C526D930C526F130C526DB301B
:100DF800C5264030C526A430C526A630C526AF3046
:100E0800C5260800200029080739B038C526200063
:100E18002A080F390038C52620002A0E0F39103845
:100E2800C52608000B000134023404340834103499
:100E380020344034803420002708AA0020002808E5
:100E4800FD00FD36FD36FD367D08A9000627003079
:100E5800CC2672082000AA007308FD00FD36FD3676
:100E6800FD367D082000A9000627730807391627D4
:100E7800CC2672082000A70073082000A8000800EC
:100E8800FD002000A900A936A936A9367D08073932
:100E9800FD00FF302000AD000730AE00AF01FD08B7
:100EA8000319080003102000AD0DAE0DAF0DFD0BAA
:100EB800562F0800FD002000A900A936A936A9363A
:100EC80006270030CC260030CC262000A90A0627A9
:100ED8000030CC260030CC262000A90A0627003096
:100EE800CC260030CC2608004427062720002D08F1
:100EF800CC2620002D08CC262000A90A0627200091
:100F08002E08CC2620002E08CC262000A90A062769
:100F180020002F08CC2620002F08CC26080020000F
:100F28000130AA00200005302B025E272000053082
:100F380070027827200070082000AB0020007D3068
:100F4800AA00200005302C025E272000053071021F
:100F58007827200071082000AC00200071082000CC
:100F6800AC0008001F279327080020000830B000B5
:100F7800BE270800200030083003C6272000B00B29
:100F8800BE2F08002000A9002000AA0106278030F3
:100F9800B100CF27080020000030CC262000B10B7C
:100FA800CF2F0800D123D523E523B626FC2302241E
:100FB800082431243524D326B927CA23CA23CA23AF
:100FC800CA23CA23E72F7B08FA00C825CE25EC2FB1
:100FD8008725E62500262B26A426B627FA0BEC2F14
:100FE800BC23E72FC825CE259327BC23F62FCA2379
:080FF800B9273725FB2F090082
:020000040001F9
:08000E008C3FF337FF3FFF3F79
:00000001FF
