:02000000F02FDF
:02000800FF2FC8
:100E6A00C7302000A10064000000A10B382F000049
:100E7A00080008302000A0003527A00B412F0800E9
:100E8A000A302000A2003E27A20B482F0800643037
:100E9A002000A3003E27A30B4F2F08000A30200092
:100EAA00A4004C27A40B562F0800320006309F00DE
:100EBA000800210030308C00210060308D002100B4
:100ECA008E01230030308C0023008D0123008E0117
:100EDA0008002200A0308E008B133C0055308F0092
:100EEA00AA308F000F103D001830A3003D001930C2
:100EFA00A4003C0055308F00AA308F000F14080060
:100F0A00210070309E0021001D1408002030F000DE
:100F1A00F100210011309D009827080021001530AA
:100F2A009D0098270800352721009D149C2F210039
:100F3A009D189C2F21001C08080020007908093AF6
:100F4A00031920007A08093A031908004030F20010
:100F5A002030F300F401F501C030F7000030F8004A
:100F6A000330F60008007618BB2FC02F7708F40765
:100F7A000318F20AC52F7708F402031CF203C52FDF
:100F8A00F61CC82FCD2F7808F502031CF3030800BE
:100F9A007808F5070318F30A08008E27DE27E227E8
:100FAA002000F00008009327DE27E2272000F10046
:100FBA000800FB00FB36FB36080005307B02031CE9
:100FCA00EC2F3B307B020318EE2F7B08080005301C
:100FDA0008003B3008005A275E276E2785278B2793
:100FEA00AB270230FC00D227D827FB2FB827FC0BEF
:060FFA00FB2FF82F090097
:020000040001F9
:08000E008C3FF337FF3FFF3F79
:00000001FF
