:02000000ED2FE2
:02000800FF2FC8
:100C9200C7302000A10064000000A10B4C2E000010
:100CA200080008302000A0004926A00B552E08009D
:100CB2000A302000A2005226A20B5C2E08006430EB
:100CC2002000A3005226A30B632E08000A30200046
:100CD200A4006026A40B6A2E0800320006309F0092
:100CE2000800210030308C00210060308D0021008E
:100CF2008E01230030308C0023008D0123008E01F1
:100D020008002200A0308E008B133C0055308F006B
:100D1200AA308F000F103D001830A3003D0019309B
:100D2200A4003C0055308F00AA308F000F14080039
:100D3200210070309E0021001D1408002030F000B8
:100D4200F1004030F2002030F300F401F5010230EE
:100D5200FB004030F7000030F8000330F6000030AE
:100D6200FE000800210011309D00BD260800210070
:100D720015309D00BD260800492621009D14C12E74
:100D820021009D18C12E21001C0808002000250802
:100D9200093A031920002608093A031908007618AF
:100DA200D32ED82E7708F4070318F20ADD2E77081F
:100DB200F402031CF203DD2EF61CE02EE52E780869
:100DC200F502031CF30308007808F5070318F30A79
:100DD2000800FE0A06307E06031D0800FE01F22608
:100DE200080002307B060319F72E032FE030770646
:100DF2000319FE2E2030F70708000330FB00AA304B
:100E0200F7000800FF307706031908001630F707CD
:100E1200031C0800FF30F7000800FF30F70008004D
:100E2200B3261D2721272000F0000800B8261D2721
:100E320021272000F1000800F900F936F9360800F0
:100E420005307902031C2B2F3B30790203182D2F1A
:100E520079080800053008003A300800322739279F
:100E62000800F61808000030730203194127080031
:100E7200F61C08003F307302031C080045270800D7
:100E8200F6140030F3000800F6103F30F3000800BB
:100E92007618080003307206031D080070087302FA
:100EA2000319632F031C562F692F73087002FC006D
:100EB200053C031C08007614F6100330F200EA2603
:100EC2007C089F2F76140330F200EA26F80108000E
:100ED200FC00053C031C08007614F6140330F200F3
:100EE200EA267C089F2F761C08007C307206031DC0
:100EF20008007108730203198E2F031C812F942F8F
:100F020073087102FC00053C031C08007610F61001
:100F12007C30F200EA267C089F2F76107C30F200AB
:100F2200EA26F8010800FC00053C031C08007610C4
:100F3200F6147C30F200EA267C089F2FFD00FD03A8
:100F42000319AF2FFD030319BC2FFD030319C82F8B
:100F5200FD030319DB2FE32FF80108007708F800DF
:100F6200F836F8367808F900F836F836F8367808A0
:100F72007902F80008007708F800F8367808F900D6
:100F8200F836F836F83678087902F800080077085B
:100F9200F800F8367808F836F8077808F900770884
:100FA200F800F836F836F836F836F8367808790266
:100FB200F80008007708F800F836F836F8367708AF
:100FC200F80708007708F800F83678087808F83645
:100FD200F8077708F80708006E26722682269926F7
:100FE2009F26A2267B08FA00F62F11271727D02664
:0E0FF2002F2749277427FA0BF62FF32F09003B
:020000040001F9
:08000E008C3FF337FF3FFF3F79
:00000001FF
