:02000000ED2FE2
:02000800FF2FC8
:100DAC00C7302000A10064000000A10BD92E000068
:100DBC00080008302000A000D626A00BE22E080068
:100DCC000A302000A200DF26A20BE92E08006430B6
:100DDC002000A300DF26A30BF02E08000A30200011
:100DEC00A400ED26A40BF72E0800320006309F005D
:100DFC000800210030308C00210060308D00210073
:100E0C008E01230030308C0023008D0123008E01D5
:100E1C0008002200A0308E008B133C0055308F0050
:100E2C00AA308F000F103D001830A3003D00193080
:100E3C00A4003C0055308F00AA308F000F1408001E
:100E4C00210070309E0021001D1408002030F0009D
:100E5C00F100210011309D003927080021001530C8
:100E6C009D0039270800D62621009D143D2F210016
:100E7C009D183D2F21001C08080020007908093A14
:100E8C00031920007A08093A031908004030F200CF
:100E9C002030F300F401F501C030F7000030F80009
:100EAC000330F600080076185C2F612F7708F407E2
:100EBC000318F20A662F7708F402031CF203662F5C
:100ECC00F61C692F6E2F7808F502031CF30308003B
:100EDC007808F5070318F30A08002F277F278327C4
:100EEC002000F000080034277F2783272000F10022
:100EFC000800FB00FB36FB36080005307B02031CA8
:100F0C008D2F3B307B0203188F2F7B080800053098
:100F1C0008003A30080094279B270800F6180800B0
:100F2C00003073020319A3270800F61C08003F3099
:100F3C007302031C0800A7270800F6140030F30006
:100F4C000800F6103F30F300080008000800F80114
:100F5C0008007708F800F836F8367808FB00F83601
:100F6C00F836F83678087B02F80008007708F800A5
:100F7C00F8367808FB00F836F836F83678087B0235
:100F8C00F80008007708F800F8367808F836F80703
:100F9C007808FB007708F800F836F836F836F8369B
:100FAC00F83678087B02F80008007708F800F83665
:100FBC00F836F8367708F80708007708F800F8369E
:100FCC0078087808F836F8077708F8070800FB2641
:100FDC00FF260F2726272C274C270230FC00023037
:100FEC00FC0073277927FA2F59279127FC0BFA2F2E
:040FFC00F52F0900C4
:020000040001F9
:08000E008C3FF337FF3FFF3F79
:00000001FF
