:02000000E72FE8
:02000800FF2FC8
:100B7600C7302000A10064000000A10BBE2D0000BC
:100B8600080008302000A000BB25A00BC72D0800D8
:100B96000A302000A200C425A20BCE2D0800643026
:100BA6002000A300C425A30BD52D08000A30200081
:100BB600A400D225A40BDC2D0800320006309F00CD
:100BC6000800210030308C00210060308D002100AB
:100BD6008E01230030308C0023008D0123008E010E
:100BE60008002200E0308E008B133C0055308F0049
:100BF600AA308F000F103D001830A3003D001930B9
:100C0600A4003C0055308F00AA308F000F14080056
:100C1600210070309E0021001D1408002030F000D5
:100C2600F1004030F2002030F300F401F50102300B
:100C3600FB004030F7000030F8000330F6000030CB
:100C4600FE0008004030F2002030F300F401F50108
:100C56000230FB004030F7000030F8000030FE00A4
:100C660008002000A501A6010800F901FA01FC010F
:100C7600FD01210011309D00462608002100153097
:100C86009D0046260800BB2521009D144A2E210002
:100C96009D184A2E21001C08080020002508093A44
:100CA600031920002608093A031908002000A50A9E
:100CB60008002000A60A08005926252676100800F6
:100CC6005C267614080008000800080008000800E2
:100CD60076186E2E732E7708F4070318F20A782E0C
:100CE6007708F402031CF203782EF61C7B2E802E66
:100CF6007808F502031CF30308007808F5070318C3
:100D0600F30A0800FE0A06307E06031D0800FE01EF
:100D16008D26080002307B060319922E9E2EE030A7
:100D260077060319992E2030F70708000330FB00D9
:100D3600AA30F7000800FF307706031908001630BE
:100D4600F707031C0800FF30F7000800FF30F70024
:100D560008003C26B826BC262000F00008004126E4
:100D6600B826BC262000F1000800F900F936F9364D
:100D7600080005307902031CC62E3B3079020318A1
:100D8600C82E79080800053008003A300800CD263C
:100D9600D4260800F6180800003073020319DC2672
:100DA6000800F61C08003F307302031C0800E0260A
:100DB6000800F6140030F3000800F6103F30F30088
:100DC60008007618080003307206031D0800700834
:100DD60073020319FE2E031CF12E042F73087002F2
:100DE600FC00053C031C08007614F6100330F200E4
:100DF60085267C083A2F76140330F2008526F80102
:100E06000800FC00053C031C08007614F6140330A9
:100E1600F20085267C083A2F761C08007C30720684
:100E2600031D0800710873020319292F031C1C2FC8
:100E36002F2F73087102FC00053C031C0800761076
:100E4600F6107C30F20085267C083A2F76107C302E
:100E5600F2008526F8010800FC00053C031C08008A
:100E66007610F6147C30F20085267C083A2FFD00B9
:100E7600FD0303194A2FFD030319572FFD03031919
:100E8600632FFD030319762F7E2FF80108007708DC
:100E9600F800F836F8367808F900F836F836F836F5
:100EA60078087902F80008007708F800F83678081C
:100EB600F900F836F836F83678087902F8000800AE
:100EC6007708F800F8367808F836F8077808F90051
:100ED6007708F800F836F836F836F836F83678082F
:100EE6007902F80008007708F800F836F836F83680
:100EF6007708F80708007708F800F83678087808C1
:100F0600F836F8077708F80708008B2792270800B5
:100F16000030720603196326F21B632E08007F3029
:100F2600720203185F26080008002400203095008E
:100F36002400403094000800240091002400141C72
:100F4600A12F24001108080022000E138E129F27DD
:100F560022008E16080022000E178E129F272200EE
:100F66008E16080022008E13CB258E17AE30A727CB
:100F7600D530A7278030A727D330A7270030A7274B
:100F86004030A7278D30A7271430A7272030A72762
:100F96000030A727A130A727C830A727DA30A72710
:100FA6001230A7278130A727CF30A727D930A72708
:100FB600F130A727DB30A7274030A727A430A72783
:100FC600A630A727AF30A727E025E425F4250B2672
:100FD6001126142634263826D925F12F7B08FA0047
:100FE600F42F5026AC26B2266B26CA26E4260F27F7
:0A0FF6008827FA0BF42FF12F0900F1
:020000040001F9
:08000E008C3FF337FF3FFF3F79
:00000001FF
