:02000000E42FEB
:02000800FF2FC8
:100A2000C7302000A10064000000A10B132D0000BE
:100A3000080008302000A0001025A00B1C2D080085
:100A40000A302000A2001925A20B232D08006430D3
:100A50002000A3001925A30B2A2D08000A3020002E
:100A6000A4002725A40B312D0800320006309F007A
:100A70000800210030308C00210060308D00210002
:100A80008E01230030308C0023008D0123008E0165
:100A900008002200E0308E008B133C0055308F00A0
:100AA000AA308F000F103D001830A3003D00193010
:100AB000A4003C0055308F00AA308F000F140800AE
:100AC000210070309E0021001D1408002030F0002D
:100AD000F1004030F2002030F300F401F501023063
:100AE000FB004030F7000030F8000330F600003023
:100AF000FE0008004030F2002030F300F401F50160
:100B00000230FB004030F7000030F8000030FE00FB
:100B100008002000A501A6010800F901FA01FC0166
:100B2000FD01210011309D009B250800210015309A
:100B30009D009B250800102521009D149F2D21005C
:100B40009D189F2D21001C08080020002508093A47
:100B5000031920002608093A031908002000A50AF5
:100B600008002000A60A0800AE257A2576100800A5
:100B7000B1257614080008000800080008000800E5
:100B80007618C32DC82D7708F4070318F20ACD2D67
:100B90007708F402031CF203CD2DF61CD02DD52DC1
:100BA0007808F502031CF30308007808F50703181A
:100BB000F30A0800FE0A06307E06031D0800FE0147
:100BC000E225080002307B060319E72DF32DE03003
:100BD00077060319EE2D2030F70708000330FB00DD
:100BE000AA30F7000800FF30770603190800163016
:100BF000F707031C0800FF30F7000800FF30F7007C
:100C0000080091250D2611262000F00008009625E9
:100C10000D2611262000F1000800F900F936F936FA
:100C2000080005307902031C1B2E3B3079020318A3
:100C30001D2E79080800053008003A3008002226E9
:100C400029260800F618080000307302031931261F
:100C50000800F61C08003F307302031C080035260C
:100C60000800F6140030F3000800F6103F30F300DF
:100C700008007618080003307206031D080070088B
:100C800073020319532E031C462E592E730870024B
:100C9000FC00053C031C08007614F6100330F2003B
:100CA000DA257C088F2E76140330F200DA25F8015D
:100CB0000800FC00053C031C08007614F614033001
:100CC000F200DA257C088F2E761C08007C30720634
:100CD000031D08007108730203197E2E031C712E78
:100CE000842E73087102FC00053C031C080076107A
:100CF000F6107C30F200DA257C088F2E76107C30DE
:100D0000F200DA25F8010800FC00053C031C08008D
:100D10007610F6147C30F200DA257C088F2EFD0068
:100D2000FD0303199F2EFD030319AC2EFD030319C8
:100D3000B82EFD030319CB2ED32EF8010800770837
:100D4000F800F836F8367808F900F836F836F8364C
:100D500078087902F80008007708F800F836780873
:100D6000F900F836F836F83678087902F800080005
:100D70007708F800F8367808F836F8077808F900A8
:100D80007708F800F836F836F836F836F836780886
:100D90007902F80008007708F800F836F836F836D7
:100DA0007708F80708007708F800F8367808780818
:100DB000F836F8077708F8070800E026E726080065
:100DC000003072060319B825F21BB82D08007F30D9
:100DD00072020318B4250800240020309500240076
:100DE000403094000800240091002400141CF52ECB
:100DF00024001108080022000E138E12F326220090
:100E00008E16080022000E178E12F32622008E1670
:100E1000080022008E1320258E17AE30FB26D53019
:100E2000FB268030FB26D330FB260030FB264030EB
:100E3000FB268D30FB261430FB262030FB260230AB
:100E4000FB26A130FB26C830FB26DA30FB26123009
:100E5000FB268130FB26CF30FB26D930FB26F13034
:100E6000FB26DB30FB264030FB26A430FB26A630D9
:100E7000FB26AF30FB260800200029080739B038D0
:100E8000FB2620002A080F390038FB262A0E0F39CE
:100E90000138FB2608000B00013402340434083406
:100EA00010342034403480342708AA002808FD007C
:100EB000FD36FD36FD367D08A9003C2700300227AF
:100EC0007208AA007308FD00FD36FD36FD367D0868
:100ED000A9003C27730807394B2702277208A7008F
:100EE0007308A8000800FD002000A900A936A93653
:100EF000A9367D080739FD00FF302000AD0007301E
:100F0000AE00AF01FD080319080003102000AD0D6D
:100F1000AE0DAF0DFD0B852F0800FD002000A900D0
:100F2000A936A936A9363C2700300227003002270F
:100F30002000A90A3C2700300227003002272000A9
:100F4000A90A3C2700300227003002270800732737
:100F50003C2720002D08022720002D080227200012
:100F6000A90A3C2720002E08022720002E0802276D
:100F70002000A90A3C2720002F08022720002F0864
:100F80000227080020000130AA00200005302B02B3
:100F90008D27200005307002A72720007008200050
:100FA000AB0020007D30AA00200005302B028D27E9
:100FB000200005307002A727200071082000AC0037
:100FC00008005427C2270800352539254925EC2675
:100FD00060256625692589258D2509272E25F02F71
:100FE0007B08FA0001260726F52FA525C0251F2618
:100FF00039266426DD26E127FA0BF52FF02F0900AC
:020000040001F9
:08000E008C3FF337FF3FFF3F79
:00000001FF
