:02000000A12F2E
:02000800F42FD3
:10069800C7302000A10064000000A10B4F2B000010
:1006A800080008302000A0004C23A00B582B08009D
:1006B8000A302000A2005523A20B5F2B08006430EB
:1006C8002000A3005523A30B662B08000A30200046
:1006D800A4006323A40B6D2B0800320006309F0092
:1006E8000800210030308C00210060308D0021008E
:1006F8008E01230030308C0023008D0123008E01F1
:1007080008002200E0308E008B133C0055308F002B
:10071800AA308F000F103D001830A3003D0019309B
:10072800A4003C0055308F00AA308F000F14080039
:10073800210070309E0021001D1408002030F000B8
:10074800F1002000AB00AC006A2720004030F20026
:10075800A70020002030F300A800F401F5010230C2
:10076800FB004030F7000030F8000330F60000309E
:10077800FE0008006A274030F2002000A700203061
:10078800F3002000A800F401F5010230FB0040301E
:10079800F7000030F8000030FE0008002000A50136
:1007A800A6010800F901FA01FC01FD01210015303C
:1007B8009D00E4230800210011309D00E423080077
:1007C8004C2321009D14E82B21009D18E82B2100C3
:1007D8001C08080020002508093A0319362D2000B6
:1007E8002608093A03193B2D08002000A50A08002D
:1007F8002000A60A0800F92307247610D92CFC2328
:1008080007247610D92C200026081624212420003D
:1008180025081624212422000E1100000E150000C0
:100828000E1108000B003F3406345B344F34663435
:100838006D347D3407347F346F34FD000830200078
:10084800B20022000E10FD1B0E148E1400008E1034
:10085800FD0D2000B20B252C08007C307D26503081
:100868007D2670307D2608007C307D2644307D262C
:100878007C307D2608007C307D2630307D2608308F
:100888007D267C307D2608007C307D2644307D2600
:100898005C307D26080064307D2654307D265C302F
:1008A8007D26080040307D267C307D2640307D2620
:1008B80008007C307D2650307D267C307D2608005F
:1008C8007C307D2658307D2674307D2608007C30AB
:1008D8007D2654307D2644307D26080024307D2630
:1008E8007C307D2604307D2608005C307D2654301F
:1008F8007D2674307D26080074307D26080010306F
:100908007D2638307D267C307D2620000930B200D7
:100918001030FD00D324080020000930B200103048
:10092800FD00D3247C307D2638307D2610307D268E
:10093800080008307D260C307D26FE307D260C30E0
:100948007D2608307D2608003124CE243824CE2484
:100958003F24CE244824CE24802408004F24CE24CB
:100968005624CE245D24CE246424CE2456240800A4
:100978006424CE246B24CE244F24CE246B24CE248E
:10098800562408003124CE24722408003124CE24B1
:100998007924080000307D2600307D2608007D0877
:1009A8007D262000B20BD32C0800EE23BE23A22301
:1009B80067276A230330C0270724D22F2000063078
:1009C800A9003730AA00B726A82420000430A900BF
:1009D8000430AA00B726832420000430A900173069
:1009E800AA00B726B22420000430A9005330AA0078
:1009F800B726BC2420000430A9006F30AA00B7260F
:100A0800902420000230A9001E30AA00B726C62470
:100A180020000230A9005B30AA00B726CA242000B3
:100A28000130A9002130AA00B7269D2420000130FA
:100A3800A9005E30AA00B7269D2408002000A9015D
:100A480020003230AA00B726A82420000730A900C9
:100A58002000AA01B726A8246A27E22408006A27EA
:100A6800E2240800A223BE2330259527B42FA22311
:100A7800BE239527B42F7618422D472D7708F40703
:100A88000318F20A4C2D7708F402031CF2034C2DCC
:100A9800F61C4F2D542D7808F502031CF3030800AB
:100AA8007808F5070318F30A0800FE0A06307E06E0
:100AB800031D0800FE016125080002307B060319AA
:100AC800662D722DE030770603196D2D2030F7075B
:100AD80008000330FB00AA30F7000800FF30770653
:100AE800031908001630F707031C0800FF30F70049
:100AF8000800DA2389258D252000F0000800DF236F
:100B080089258D252000F1000800F900F936F9360D
:100B1800080005307902031C972D3B307902031831
:100B2800992D79080800053008003A3008009E25FC
:100B3800A6250800F618080073080319AD2DF31B45
:100B4800AD2D0800F61C08003F3073020318B12DC4
:100B58000800F6140030F3000800F6103F30F300E8
:100B680008007618080003307206031D0800700894
:100B780073020319CF2D031CC22DD52D73087002E3
:100B8800FC00053C031C08007614F6100330F20044
:100B980059257C080B2E76140330F2005925F801EC
:100BA8000800FC00053C031C08007614F61403300A
:100BB800F20059257C080B2E761C08007C30720642
:100BC800031D0800710873020319FA2D031CED2D8B
:100BD800002E73087102FC00053C031C0800761007
:100BE800F6107C30F20059257C080B2E76107C30EC
:100BF800F2005925F8010800FC00053C031C080018
:100C08007610F6147C30F20059257C080B2EFD0076
:100C1800FD0303191B2EFD030319282EFD030319D9
:100C2800342EFD030319472E4F2EF80108007708CC
:100C3800F800F836F8367808F900F836F836F83655
:100C480078087902F80008007708F800F83678087C
:100C5800F900F836F836F83678087902F80008000E
:100C68007708F800F8367808F836F8077808F900B1
:100C78007708F800F836F836F836F836F83678088F
:100C88007902F80008007708F800F836F836F836E0
:100C98007708F80708007708F800F8367808780821
:100CA800F836F8077708F8070800761C5C2E622EDD
:100CB800720803190234F21B0234003472087F3CB4
:100CC800031C0134003424002030950024004030F7
:100CD80094000800240091002400141C702E2400A5
:100CE8001108080022000E138E126E2622008E169E
:100CF800080022000E178E126E2622008E1608009B
:100D080022008E135C238E17AE307626D5307626D9
:100D180080307626D3307626003076264030762608
:100D28008D307626143076262030762602307626C8
:100D3800A1307626C0307626DA307626123076262E
:100D480081307626CF307626D9307626F130762651
:100D5800DB30762640307626A4307626A6307626F6
:100D6800AF3076260800200029080739B0387626E3
:100D780020002A080F390038762620002A0E0F395D
:100D88001038762608000B00013402340434083485
:100D9800103420344034803420002708AA00200072
:100DA8002808FD00FD36FD36FD367D08A900B7266A
:100DB80000307D2672082000AA007308FD00FD3669
:100DC800FD36FD367D082000A900B72673080739CF
:100DD800C7267D2672082000A70073082000A800F7
:100DE8000800FD002000A900A936A936A9367D080B
:100DF8000739FD00FF302000AD000730AE00AF011D
:100E0800FD080319080003102000AD0DAE0DAF0D4D
:100E1800FD0B072F0800FD002000A900A936A93600
:100E2800A936B72600307D2600307D262000A90A85
:100E3800B72600307D2600307D262000A90AB72677
:100E480000307D2600307D260800F526B7262000D4
:100E58002D087D2620002D087D262000A90AB7260A
:100E680020002E087D2620002E087D262000A90AB5
:100E7800B72620002F087D2620002F087D26080091
:100E880020000130AA00200005302B020F27200087
:100E9800053070022927200070082000AB002000D0
:100EA8007D30AA00200005302C020F2720000530D5
:100EB80071022927200071082000AC002000710869
:100EC8002000AC000800D026442708002000083085
:100ED800B0006F2708002000300830037727200073
:100EE800B00B6F2F08002000A9002000AA01B72628
:100EF8008030B10080270800200000307D262000C7
:100F0800B10B802F080022000D12080022000D16D8
:100F1800080020008D1A912F932F87278D2F8A275D
:100F28008D2F20008D1A952F8A27632387279C2FC2
:100F380020008D1E9C2F5C230800712375238523B8
:100F480067269C23A223A823D223D6238727842677
:100F5800270015172100101620000B178B17B42F28
:100F6800D2236A27E224072495276A27A82367271C
:100F78000530C0270724D22FFF00C22F7F08162470
:100F880021247F081624212422000E1100000E15AA
:100F980000000E116A23FF0BC22F08007B08FA001D
:100FA8007D2583258727D82F3F259B25B525E02537
:100FB8005926FD0001307D060319FF2B02307D06FE
:100FC8000319032C6727FA0BD82F5C23D22F7D2512
:100FD800832544275C23EB2F6A236A27E224F02F1A
:100FE800270016080319FF2F9601270093018A2767
:080FF8006323872701000900B3
:020000040001F9
:08000E008C3FF337FF3FFF3F79
:00000001FF
