:02000000E62FE9
:02000800FF2FC8
:100B5600C7302000A10064000000A10BAE2D0000EC
:100B6600080008302000A000AB25A00BB72D080018
:100B76000A302000A200B425A20BBE2D0800643066
:100B86002000A300B425A30BC52D08000A302000C1
:100B9600A400C225A40BCC2D0800320006309F000D
:100BA6000800210030308C00210060308D002100CB
:100BB6008E01230030308C0023008D0123008E012E
:100BC60008002200E0308E008B133C0055308F0069
:100BD600AA308F000F103D001830A3003D001930D9
:100BE600A4003C0055308F00AA308F000F14080077
:100BF600210070309E0021001D1408002030F000F6
:100C0600F1004030F2002030F300F401F50102302B
:100C1600FB004030F7000030F8000330F6000030EB
:100C2600FE0008004030F2002030F300F401F50128
:100C36000230FB004030F7000030F8000030FE00C4
:100C460008002000A501A6010800F901FA01FC012F
:100C5600FD01210011309D003626080021001530C7
:100C66009D0036260800AB2521009D143A2E210052
:100C76009D183A2E21001C08080020002508093A74
:100C8600031920002608093A031908002000A50ABE
:100C960008002000A60A0800492615267610080036
:100CA6004C26761408000800080008000800080012
:100CB60076185E2E632E7708F4070318F20A682E5C
:100CC6007708F402031CF203682EF61C6B2E702EB6
:100CD6007808F502031CF30308007808F5070318E3
:100CE600F30A0800FE0A06307E06031D0800FE0110
:100CF6007D26080002307B060319822E8E2EE030F8
:100D060077060319892E2030F70708000330FB0009
:100D1600AA30F7000800FF307706031908001630DE
:100D2600F707031C0800FF30F7000800FF30F70044
:100D360008002C26A826AC262000F0000800312644
:100D4600A826AC262000F1000800F900F936F9368D
:100D5600080005307902031CB62E3B3079020318D1
:100D6600B82E79080800053008003A300800BD267C
:100D7600C4260800F6180800003073020319CC26B2
:100D86000800F61C08003F307302031C0800D0263A
:100D96000800F6140030F3000800F6103F30F300A8
:100DA60008007618080003307206031D0800700854
:100DB60073020319EE2E031CE12EF42E7308700243
:100DC600FC00053C031C08007614F6100330F20004
:100DD60075267C082A2F76140330F2007526F80152
:100DE6000800FC00053C031C08007614F6140330CA
:100DF600F20075267C082A2F761C08007C307206C5
:100E0600031D0800710873020319192F031C0C2F08
:100E16001F2F73087102FC00053C031C08007610A6
:100E2600F6107C30F20075267C082A2F76107C306E
:100E3600F2007526F8010800FC00053C031C0800BA
:100E46007610F6147C30F20075267C082A2FFD00F9
:100E5600FD0303193A2FFD030319472FFD03031959
:100E6600532FFD030319662F6E2FF801080077082C
:100E7600F800F836F8367808F900F836F836F83615
:100E860078087902F80008007708F800F83678083C
:100E9600F900F836F836F83678087902F8000800CE
:100EA6007708F800F8367808F836F8077808F90071
:100EB6007708F800F836F836F836F836F83678084F
:100EC6007902F80008007708F800F836F836F836A0
:100ED6007708F80708007708F800F83678087808E1
:100EE600F836F8077708F80708007B2782270800F6
:100EF6000030720603195326F21B532E08007F306A
:100F0600720203184F2608002400203095002400A2
:100F1600403094000800240091002400141C902FF7
:100F260024001108080022000E138E128E272200BC
:100F36008E16080022000E178E128E2722008E169D
:100F4600080022008E13BB258E17AE309627D530AB
:100F5600962780309627D330962700309627403044
:100F660096278D3096271430962720309627023004
:100F76009627A1309627C8309627DA309627123062
:100F8600962781309627CF309627D9309627F1308D
:100F96009627DB30962740309627A4309627A63032
:100FA6009627AF3096270800200029080739B03861
:100FB600962720002A080F39003896272A0E0F395F
:100FC600013896270800D025D425E425FB250126DF
:100FD600042624262826A427C925F12F7B08FA00F3
:100FE600F42F40269C26A2265B26BA26D426FF2668
:0A0FF6007827FA0BF42FF12F090001
:020000040001F9
:08000E008C3FF337FF3FFF3F79
:00000001FF
