:02000000F52FDA
:02000800FF2FC8
:100E7400C7302000A10064000000A10B3D2F00003A
:100E8400080008302000A0003A27A00B462F0800D5
:100E94000A302000A2004327A20B4D2F0800643023
:100EA4002000A3004327A30B542F08000A3020007E
:100EB400A4005127A40B5B2F0800320006309F00CA
:100EC4000800210030308C00210060308D002100AA
:100ED4008E01230030308C0023008D0123008E010D
:100EE40008002200A0308E008B133C0055308F0088
:100EF400AA308F000F103D001830A3003D001930B8
:100F0400A4003C0055308F00AA308F000F14080055
:100F1400210070309E0021001D1408002030F000D4
:100F2400F100210011309D009D270800210015309B
:100F34009D009D2708003A2721009D14A12F210020
:100F44009D18A12F21001C08080020007908093AE7
:100F5400031920007A08093A031908004030F20006
:100F64002030F300F401F501C030F7000030F80040
:100F74000330F60008007618C02FC52F7708F40751
:100F84000318F20ACA2F7708F402031CF203CA2FCB
:100F9400F61CCD2FD22F7808F502031CF3030800AA
:100FA4007808F5070318F30A08009327E327E727CF
:100FB4002000F00008009827E327E7272000F1002D
:100FC4000800FB00FB36FB36080005307B02031CDF
:100FD400F12F3B307B020318F32F7B080800053008
:100FE40008003B3008005F27632773278A27902770
:0C0FF400B02793279827BD27FB2F09008A
:020000040001F9
:08000E008C3FF337FF3FFF3F79
:00000001FF
