:02000000EF2FE0
:02000800FF2FC8
:100EB000C7302000A10064000000A10B5B2F0000E0
:100EC000080008302000A0005827A00B642F08005D
:100ED0000A302000A2006127A20B6B2F08006430AB
:100EE0002000A3006127A30B722F08000A30200006
:100EF000A4006F27A40B792F0800320006309F0052
:100F00000800210030308C00210060308D0021006D
:100F10008E01230030308C0023008D0123008E01D0
:100F200008002200A0308E008B133C0055308F004B
:100F3000AA308F000F103D001830A3003D0019307B
:100F4000A4003C0055308F00AA308F000F14080019
:100F5000210070309E0021001D1408002100113076
:100F60009D00B62F210015309D00B62F5827210077
:100F70009D14BA2F9D18BA2F21001C0808002000CC
:100F80007908093A031920007A08093A0319080078
:100F90004030F2002030F300F401F501C030F700DA
:100FA0000030F8000330F60008007618D82FDD2F47
:100FB0007708F4070318F20AE22F7708F402031CFB
:100FC000F203E22FF61CE52FEA2F7808F502031C46
:100FD000F30308007808F5070318F30A08007D27D3
:100FE00081279127A8272030F000F100C827AE27DD
:100FF0002000F000B2272000F100D527F72F0900CC
:020000040001F9
:08000E008C3FF337FF3FFF3F79
:00000001FF
