:02000000B52F1A
:02000800FF2FC8
:100F2000C7302000A10064000000A10B932F000037
:100F3000080008302000A0009027A00B9C2F08007C
:100F40000A302000A2009927A20BA32F08006430CA
:100F50002000A3009927A30BAA2F08000A30200025
:100F6000A400A727A40BB12F0800B827BC27C827C7
:100F7000320006309F000800210030308C00210034
:100F800060308D00230030308C0023008D0108007C
:100F900021008E0123008E012200A0308E008B13D1
:100FA0003C0055308F00AA308F000F103D001830E4
:100FB000A3003D001930A4003C0055308F00AA303A
:100FC0008F000F14210070309E0021001D14EE27A9
:100FD0002000F000F2272000F100E72F210011305F
:100FE0009D00F62F210015309D00F62F902721003F
:100FF0009D14FA2F9D18FA2F21001C0808000900E3
:020000040001F9
:08000E008C3FF337FF3FFF3F79
:00000001FF
