:02000000D42FFB
:02000800FF2FC8
:10075800C7302000A10064000000A10BAF2B0000EF
:10076800080008302000A000AC23A00BB82B08001C
:100778000A302000A200B523A20BBF2B080064306A
:100788002000A300B523A30BC62B08000A302000C5
:10079800A400C323A40BCD2B0800320006309F0011
:1007A8000800210030308C00210060308D002100CD
:1007B8008E01230030308C0023008D0123008E0130
:1007C80008002200E0308E008B133C0055308F006B
:1007D800AA308F000F103D001830A3003D001930DB
:1007E800A4003C0055308F00AA308F000F14080079
:1007F800210070309E0021001D1408002030F000F8
:10080800F1002000AB00AC00B72720004030F20018
:10081800A70020002030F300A800F401F501023001
:10082800FB004030F7000030F8000330F6000030DD
:10083800FE000800B7274030F2002000A700203053
:10084800F3002000A800F401F5010230FB0040305D
:10085800F7000030F8000030FE0008002000A50175
:10086800A6010800F901FA01FC01FD01210015307B
:100878009D0044240800210011309D0044240800F4
:10088800AC2321009D14482C21009D18482C2100E0
:100898001C08080020002508093A0319200026082A
:1008A800093A031908002000A50A08002000A60A32
:1008B800080057241E24761008005A241E24761493
:1008C80008002000260874247F24200025087424AA
:1008D8007F2422000E1100000E1500000E110800E2
:1008E8000B003F3406345B344F3466346D347D344A
:1008F80007347F346F34FD000830B20022000E1038
:10090800FD1B0E148E1400008E10FD0D2000B20B7E
:10091800822C08007C30CA265030CA267030CA267D
:1009280008007C30CA264430CA267C30CA26080013
:100938007C30CA263030CA260830CA267C30CA26FF
:1009480008007C30CA264430CA265C30CA26080013
:100958006430CA265430CA265C30CA2608004030A3
:10096800CA267C30CA264030CA2608007C30CA26EF
:100978005030CA267C30CA2608007C30CA26583037
:10098800CA267430CA2608007C30CA265430CA26C3
:100998004430CA2608002430CA267C30CA260430CF
:1009A800CA2608005C30CA265430CA267430CA26C3
:1009B80008007430CA2608001030CA263830CA2603
:1009C8007C30CA2620000930B2001030FD003025E6
:1009D800080020000930B2001030FD0030257C30BE
:1009E800CA263830CA261030CA2608000830CA2657
:1009F8000C30CA26FE30CA260C30CA260830CA2651
:100A080008008E242B2595242B259C242B25A524F2
:100A18002B25DD240800AC242B25B3242B25BA2450
:100A28002B25C1242B25B3240800C1242B25C82439
:100A38002B25AC242B25C8242B25B32408008E2471
:100A48002B25CF2408008E242B25D624080000301F
:100A5800CA260030CA2608007D08CA262000B20B24
:100A6800302D08000800080020000630A9003730A3
:100A7800AA000427052520000430A9000430AA0094
:100A88000427E02420000430A9001730AA00042716
:100A98000F2520000430A9005330AA000427192587
:100AA80020000430A9006F30AA000427ED2420009C
:100AB8000230A9001E30AA00042723252000023096
:100AC800A9005B30AA000427272520000130A900CF
:100AD8002130AA000427FA2420000130A9005E3042
:100AE800AA000427FA2408002000A90120003230B7
:100AF800AA000427052520000730A9002000AA0124
:100B0800042705250800080076188B2D902D7708F6
:100B1800F4070318F20A952D7708F402031CF20370
:100B2800952DF61C982D9D2D7808F502031CF303CE
:100B380008007808F5070318F30A0800FE0A0630CB
:100B48007E06031D0800FE01AA25080002307B0668
:100B58000319AF2DBB2DE03077060319B62D2030D1
:100B6800F70708000330FB00AA30F7000800FF3041
:100B78007706031908001630F707031C0800FF3032
:100B8800F70008003A24D225D6252000F0000800F6
:100B98003F24D225D6252000F1000800F900F936B7
:100BA800F936080005307902031CE02D3B30790244
:100BB8000318E22D79080800053008003A300800CB
:100BC800E725EF250800F618080073080319F62D25
:100BD800F31BF62D0800F61C08003F3073020318BB
:100BE800FA2D0800F6140030F3000800F6103F3024
:100BF800F30008007618080003307206031D080089
:100C0800700873020319182E031C0B2E1E2E73086E
:100C18007002FC00053C031C08007614F610033033
:100C2800F200A2257C08542E76140330F200A22587
:100C3800F8010800FC00053C031C08007614F614B3
:100C48000330F200A2257C08542E761C08007C3064
:100C58007206031D0800710873020319432E031C52
:100C6800362E492E73087102FC00053C031C08004F
:100C78007610F6107C30F200A2257C08542E7610EF
:100C88007C30F200A225F8010800FC00053C031C9A
:100C980008007610F6147C30F200A2257C08542E49
:100CA800FD00FD030319642EFD030319712EFD03D6
:100CB80003197D2EFD030319902E982EF8010800C4
:100CC8007708F800F836F8367808F900F836F83674
:100CD800F83678087902F80008007708F800F8363E
:100CE8007808F900F836F836F83678087902F80006
:100CF80008007708F800F8367808F836F807780812
:100D0800F9007708F800F836F836F836F836F83685
:100D180078087902F80008007708F800F836F836FD
:100D2800F8367708F80708007708F800F8367808E2
:100D38007808F836F8077708F8070800A526AD26DA
:100D480008007618080072080319612CF21B612C40
:100D58000800761C080072087F3C031C5D2C080004
:100D6800240020309500240040309400080024001E
:100D780091002400141CBD2E240011080800220034
:100D88000E138E12BB2622008E16080022000E17A4
:100D98008E12BB2622008E16080022008E13BC235A
:100DA8008E17AE30C326D530C3268030C326D33045
:100DB800C3260030C3264030C3268D30C3261430E6
:100DC800C3262030C3260230C326A130C326C03034
:100DD800C326DA30C3261230C3268130C326CF306B
:100DE800C326D930C326F130C326DB30C3264030B2
:100DF800C326A430C326A630C326AF30C3260800B6
:100E0800200029080739B038C32620002A080F39DE
:100E18000038C32620002A0E0F391038C3260800D0
:100E28000B000134023404340834103420344034C4
:100E3800803420002708AA0020002808FD00FD367D
:100E4800FD36FD367D08A90004270030CA26720841
:100E58002000AA007308FD00FD36FD36FD367D082A
:100E68002000A9000427730807391427CA26720826
:100E78002000A70073082000A8000800FD0020003B
:100E8800A900A936A936A9367D080739FD00FF3023
:100E98002000AD000730AE00AF01FD0803190800BF
:100EA80003102000AD0DAE0DAF0DFD0B542F080043
:100EB800FD002000A900A936A936A936042700306C
:100EC800CA260030CA262000A90A04270030CA26EC
:100ED8000030CA262000A90A04270030CA2600309C
:100EE800CA2608004227042720002D08CA26200009
:100EF8002D08CA262000A90A042720002E08CA2681
:100F080020002E08CA262000A90A042720002F083E
:100F1800CA2620002F08CA26080020000130AA008F
:100F2800200005302B025C27200005307002762750
:100F3800200070082000AB0020007D30AA002000AF
:100F480005302C025C27200005307102762720002E
:100F580071082000AC00200071082000AC000800D7
:100F68001D279127080020000830B000BC27080082
:100F7800200030083003C4272000B00BBC2F080025
:100F88002000A9002000AA0104278030B100CD2745
:100F9800080020000030CA262000B10BCD2F080021
:100FA800D123D523E523B426FC23022408243224A4
:100FB8003624D126B72722000D12CA23CA23CA23F2
:100FC800CA23CA23E72F7B08FA00C625CC25EC2FB5
:100FD8008825E425FE252926A226B427FA0BEC2F1E
:100FE800BC23E72FC625CC259127BC23F62FCA237F
:080FF800B7273825FB2F090083
:020000040001F9
:08000E008C3FF337FF3FFF3F79
:00000001FF
